{
  "contractName": "OneTimeNotes",
  "abi": [
    {
      "anonymous": false,
      "inputs": [
        {
          "indexed": true,
          "internalType": "bytes32",
          "name": "nullifier",
          "type": "bytes32"
        },
        {
          "indexed": false,
          "internalType": "bytes",
          "name": "encryptedNote",
          "type": "bytes"
        }
      ],
      "name": "NoteRetrieved",
      "type": "event"
    },
    {
      "anonymous": false,
      "inputs": [
        {
          "indexed": true,
          "internalType": "bytes32",
          "name": "nullifier",
          "type": "bytes32"
        }
      ],
      "name": "NoteStored",
      "type": "event"
    },
    {
      "inputs": [
        {
          "internalType": "bytes32",
          "name": "nullifier",
          "type": "bytes32"
        },
        {
          "internalType": "bytes",
          "name": "encryptedNote",
          "type": "bytes"
        }
      ],
      "name": "storeNote",
      "outputs": [],
      "stateMutability": "nonpayable",
      "type": "function"
    },
    {
      "inputs": [
        {
          "internalType": "bytes32",
          "name": "nullifier",
          "type": "bytes32"
        }
      ],
      "name": "retrieveNote",
      "outputs": [
        {
          "internalType": "bytes",
          "name": "",
          "type": "bytes"
        }
      ],
      "stateMutability": "nonpayable",
      "type": "function"
    },
    {
      "inputs": [
        {
          "internalType": "bytes32",
          "name": "nullifier",
          "type": "bytes32"
        }
      ],
      "name": "isNullifierUsed",
      "outputs": [
        {
          "internalType": "bool",
          "name": "",
          "type": "bool"
        }
      ],
      "stateMutability": "view",
      "type": "function",
      "constant": true
    },
    {
      "inputs": [
        {
          "internalType": "bytes32",
          "name": "nullifier",
          "type": "bytes32"
        }
      ],
      "name": "noteExists",
      "outputs": [
        {
          "internalType": "bool",
          "name": "",
          "type": "bool"
        }
      ],
      "stateMutability": "view",
      "type": "function",
      "constant": true
    }
  ],
  "bytecode": "0x608060405234801561000f575f80fd5b50610abc8061001d5f395ff3fe608060405234801561000f575f80fd5b506004361061004a575f3560e01c806302c323de1461004e57806322dc7b4c1461006a578063d64122b41461009a578063ed23ed53146100ca575b5f80fd5b6100686004803603810190610063919061051a565b6100fa565b005b610084600480360381019061007f9190610574565b6101a7565b60405161009191906105b9565b60405180910390f35b6100b460048036038101906100af9190610574565b6101cd565b6040516100c1919061064c565b60405180910390f35b6100e460048036038101906100df9190610574565b610373565b6040516100f191906105b9565b60405180910390f35b60015f8381526020019081526020015f205f9054906101000a900460ff1615610158576040517f08c379a000000000000000000000000000000000000000000000000000000000815260040161014f906106c6565b60405180910390fd5b805f808481526020019081526020015f20908161017591906108e7565b50817fcefb4aab2e7fcb93c21d2a5002c40e10ac8279dc94ed29cc23343b516485eed160405160405180910390a25050565b5f60015f8381526020019081526020015f205f9054906101000a900460ff169050919050565b606060015f8381526020019081526020015f205f9054906101000a900460ff161561022d576040517f08c379a000000000000000000000000000000000000000000000000000000000815260040161022490610a00565b60405180910390fd5b5f805f8481526020019081526020015f20805461024990610711565b80601f016020809104026020016040519081016040528092919081815260200182805461027590610711565b80156102c05780601f10610297576101008083540402835291602001916102c0565b820191905f5260205f20905b8154815290600101906020018083116102a357829003601f168201915b505050505090505f81511161030a576040517f08c379a000000000000000000000000000000000000000000000000000000000815260040161030190610a68565b60405180910390fd5b6001805f8581526020019081526020015f205f6101000a81548160ff021916908315150217905550827f5aefb7954df6a6bbce814e31e9f1be8026e59fddfd187c6c1d7ba05800f10c2b82604051610362919061064c565b60405180910390a280915050919050565b5f805f808481526020019081526020015f20805461039090610711565b9050119050919050565b5f604051905090565b5f80fd5b5f80fd5b5f819050919050565b6103bd816103ab565b81146103c7575f80fd5b50565b5f813590506103d8816103b4565b92915050565b5f80fd5b5f80fd5b5f601f19601f8301169050919050565b7f4e487b71000000000000000000000000000000000000000000000000000000005f52604160045260245ffd5b61042c826103e6565b810181811067ffffffffffffffff8211171561044b5761044a6103f6565b5b80604052505050565b5f61045d61039a565b90506104698282610423565b919050565b5f67ffffffffffffffff821115610488576104876103f6565b5b610491826103e6565b9050602081019050919050565b828183375f83830152505050565b5f6104be6104b98461046e565b610454565b9050828152602081018484840111156104da576104d96103e2565b5b6104e584828561049e565b509392505050565b5f82601f830112610501576105006103de565b5b81356105118482602086016104ac565b91505092915050565b5f80604083850312156105305761052f6103a3565b5b5f61053d858286016103ca565b925050602083013567ffffffffffffffff81111561055e5761055d6103a7565b5b61056a858286016104ed565b9150509250929050565b5f60208284031215610589576105886103a3565b5b5f610596848285016103ca565b91505092915050565b5f8115159050919050565b6105b38161059f565b82525050565b5f6020820190506105cc5f8301846105aa565b92915050565b5f81519050919050565b5f82825260208201905092915050565b5f5b838110156106095780820151818401526020810190506105ee565b5f8484015250505050565b5f61061e826105d2565b61062881856105dc565b93506106388185602086016105ec565b610641816103e6565b840191505092915050565b5f6020820190508181035f8301526106648184610614565b905092915050565b5f82825260208201905092915050565b7f4e756c6c696669657220616c72656164792075736564000000000000000000005f82015250565b5f6106b060168361066c565b91506106bb8261067c565b602082019050919050565b5f6020820190508181035f8301526106dd816106a4565b9050919050565b7f4e487b71000000000000000000000000000000000000000000000000000000005f52602260045260245ffd5b5f600282049050600182168061072857607f821691505b60208210810361073b5761073a6106e4565b5b50919050565b5f819050815f5260205f209050919050565b5f6020601f8301049050919050565b5f82821b905092915050565b5f6008830261079d7fffffffffffffffffffffffffffffffffffffffffffffffffffffffffffffffff82610762565b6107a78683610762565b95508019841693508086168417925050509392505050565b5f819050919050565b5f819050919050565b5f6107eb6107e66107e1846107bf565b6107c8565b6107bf565b9050919050565b5f819050919050565b610804836107d1565b610818610810826107f2565b84845461076e565b825550505050565b5f90565b61082c610820565b6108378184846107fb565b505050565b5b8181101561085a5761084f5f82610824565b60018101905061083d565b5050565b601f82111561089f5761087081610741565b61087984610753565b81016020851015610888578190505b61089c61089485610753565b83018261083c565b50505b505050565b5f82821c905092915050565b5f6108bf5f19846008026108a4565b1980831691505092915050565b5f6108d783836108b0565b9150826002028217905092915050565b6108f0826105d2565b67ffffffffffffffff811115610909576109086103f6565b5b6109138254610711565b61091e82828561085e565b5f60209050601f83116001811461094f575f841561093d578287015190505b61094785826108cc565b8655506109ae565b601f19841661095d86610741565b5f5b828110156109845784890151825560018201915060208501945060208101905061095f565b868310156109a1578489015161099d601f8916826108b0565b8355505b6001600288020188555050505b505050505050565b7f4e6f746520616c726561647920726561640000000000000000000000000000005f82015250565b5f6109ea60118361066c565b91506109f5826109b6565b602082019050919050565b5f6020820190508181035f830152610a17816109de565b9050919050565b7f4e6f746520646f6573206e6f74206578697374000000000000000000000000005f82015250565b5f610a5260138361066c565b9150610a5d82610a1e565b602082019050919050565b5f6020820190508181035f830152610a7f81610a46565b905091905056fea2646970667358221220efccfa7656f90793f791beb916fd9c25aa6e26f80266b7348cf6370af14452f164736f6c63430008150033",
  "immutableReferences": {},
  "source": "// SPDX-License-Identifier: MIT\npragma solidity ^0.8.19;\n\ncontract OneTimeNotes {\n    mapping(bytes32 => bytes) private notes;\n    mapping(bytes32 => bool) private usedNullifiers;\n\n    event NoteStored(bytes32 indexed nullifier);\n    event NoteRetrieved(bytes32 indexed nullifier, bytes encryptedNote);\n\n    function storeNote(bytes32 nullifier, bytes memory encryptedNote) public {\n        require(!usedNullifiers[nullifier], \"Nullifier already used\");\n        notes[nullifier] = encryptedNote;\n        emit NoteStored(nullifier);\n    }\n\n    function retrieveNote(bytes32 nullifier) public returns (bytes memory) {\n        require(!usedNullifiers[nullifier], \"Note already read\");\n        bytes memory note = notes[nullifier];\n        require(note.length > 0, \"Note does not exist\");\n        \n        usedNullifiers[nullifier] = true;\n        // potentially delete the note\n        // delete notes[nullifier];\n        emit NoteRetrieved(nullifier, note);\n        return note;\n    }\n\n    function isNullifierUsed(bytes32 nullifier) public view returns (bool) {\n        return usedNullifiers[nullifier];\n    }\n\n    function noteExists(bytes32 nullifier) public view returns (bool) {\n        return notes[nullifier].length > 0;\n    }\n}\n",
  "sourcePath": "/home/justus/Code/Uni/nullifier-notes/contracts/one-time-notes.sol",
  "compiler": {
    "name": "solc",
    "version": "0.8.21+commit.d9974bed.Emscripten.clang"
  },
  "schemaVersion": "3.4.16",
  "updatedAt": "2024-07-09T13:39:59.648Z",
  "networkType": "ethereum",
  "devdoc": {
    "kind": "dev",
    "methods": {},
    "version": 1
  },
  "userdoc": {
    "kind": "user",
    "methods": {},
    "version": 1
  }
}